:020000040800F2
:2030000000800020213400081D3400081D3400081D3400081D3400081D3400081D3400089D
:203020001D3400081D3400081D3400081D3400081D3400081D3400081D340008114C0008BC
:203040001D3400081D3400081D3400081D3400081D3400081D3400081D3400081D340008A8
:203060001D3400081D3400081D3400081D3400081D3400081D3400081D3400081D34000888
:203080001D3400081D3400081D3400081D3400081D3400081D3400081D3400081D34000868
:2030A0001D3400081D3400081D3400081D3400081D3400081D3400081D3400081D34000848
:2030C0001D3400081D3400081D3400081D3400081D3400081D34000861320008000000003F
:2030E0000000000000000000000000000000000000000000000000000000000000000000D0
:203100000000000000000000000000000000000000000000000000000000000000000000AF
:2031200000000000000000000000000000000000000000000000000000000000000000008F
:2031400000000000000000000000000000000000000000000000000000000000000000006F
:2031600000000000000000000000000000000000000000000000000000000000000000004F
:2031800000000000000000000000000000000000000000000000000000000000000000002F
:2031A00000000000000000000000000000000000000000000000000000000000000000000F
:2031C0000000000000000000000000000000000000000000000000000000000000000000EF
:2031E0000000000000000000000000000000000000000000000000000000000000000000CF
:203200006D6375305F3030305F303030110594780000000000000000000000000000000039
:2032200070B50C4C0C4BA5690C495E68284605F0C9FE06F017F80644E660284605F07AFAFB
:2032400002460B46D4E9040105F016F9C4E90401012070BD28000020001000E0C0E1E44C06
:203260001A4B1B689A0610B405D4184B1B681B0613D410BC7047164B1B68C3F308037E2B6A
:2032800020D014490A78BF2AEFD8134C501CA3540E4B08701B681B06EBD5104A104913787A
:2032A0000978994207D90F480949C05C0133137010BC086070470C4A10BC136823F0800338
:2032C00013607047094A00211172DAE70044004004440040D805002018050020E5070020BA
:2032E000E4070020840700200C44004000000020194B1A68D20607D51B6813F0020F14BF64
:2033000000204FF416607047144A1368C0B223F01F030343092810B4136018D912280DD8DF
:2033200000EB40000E4C1E38226807218140012322EA010203FA00F010432060094A10BC2D
:20334000136843F480034FF4166013607047064C00EB4000E8E700BF00240140342401404C
:203360000C240140082401401024014010B4EFF3108172B6084B020900F00F0053F82220B1
:203380000123D46803FA00F0204214BF5061106181F3108810BC704718960008BFF34F8FB4
:2033A0000549064BCA6802F4E0621343CB60BFF34F8F00BFFDE700BF00ED00E00400FA05C1
:2033C00008B5154B1B689A1E22F00702093B934201D0FFF7E3FF0CA1D1E90001D3E9002371
:2033E0008B4208BF8242F4D14FF000631A68D31D23F007039A42ECD172B605A1D1E900015D
:20340000C2E90001FFF7CAFF43616E426F6F74213D24A8A945EC067B04000008FEE700BF66
:2034200072B6024B024A9D461047704700800020AD35000838B50A4C0A4A0B4BA26001223E
:203440002260A06909495D6805F0BCFD05F00AFF0544E560201DBDE8384004F0BFBF00BF05
:203460002800002021320008001000E0C0E1E44C70B542681B498CB0D1F8040391F8E2320C
:20348000019001EB82052C462846D5F84C51D4F8C840406C049501EB8205039402902C46B7
:2034A0002846D4F8D441D0F85061D5F858520093D0F8CC30806C0B9501EB82050A942C4667
:2034C000D5F85452D4F8D041CDE90836D1F8D832097807900448CDE9054503F039F90CB090
:2034E00070BD00BFF80100201C95000870B54268144C1548236E217804EB820588B02E4636
:20350000AD6F766F079504EB820506962E462D6FF66E059504EB820504962E46D5F8FC5051
:20352000D6F8F860039504EB82052C46D5F8F450D4F8F0400094CDE9015603F009F908B08A
:2035400070BD00BFE00500203C95000810B5D0E9044186B003680491C1680394D0E901042A
:2035600040F23312CDE9000402910348D9B203F0EFF806B010BD00BF3494000810B582B0CE
:2035800000F11A0304460093437E828A044803F0DFF8A38A002201336276A38202B010BD5E
:2035A0007C94000808B5202002F0D4FC00B5002283B04FF0FF31930003F1604303F56143F5
:2035C000C3F88010BFF34F8F0132082AC3F88011F1D100236D481946C2180133F02B82F8C3
:2035E0000013F9D16A4B04221A60BFF34F8F694A4FF02061002351601946D01801330C2B10
:203600000176FAD1BFF34F8FBFF36F8F62B66248624A6349121A05F0BBFE6248624A0021BD
:20362000121A05F0DDFE614B1A6842F001021A601A689007FCD55E4A1368002143F08003CD
:2036400013600191019B4F2B05D8019B01330193019B4F2BF9D9564A1368002143F0900324
:2036600013600191019B4F2B05D8019B01330193019B4F2BF9D94E494C4B0A684D484E4C37
:2036800022F003020A601A6822F0847222F480324FF41F051A6005601A68002022F48022B7
:2036A0001A60086020601A6842F480321A604FF6FF7201E0013A02D019688903FAD53B4ABF
:2036C00013689B0361D53D4C3D482168384B41F080512160016841F4404101601968196084
:2036E000196841F400511960196841F480611960196821F440311960196841F4403119601A
:20370000196821F0904121F470111960196841F0036141F480211960136843F080731360BE
:2037200013689D01FCD5264A2649136843F4803313600B68DC03FCD5214A2249136843F43D
:20374000003313600B689803FCD5194B1A6822F003021A601A6842F002021A601A681207A0
:20376000FCD50C4B1849194A9A600B68184A43F001030B60136823F0E06343F080634FF0C6
:2037800080611360116004F0D1FBFEE700E100E010E000E000ED00E00000002058000020C9
:2037A0003CA80008580000201C0B00200010024004100240081002402C1002401C10024070
:2037C000007000400470004018100240003000080400014038B514490446007802F094FC10
:2037E0002379C27E1A44C27672B6827C9A4205D80022FE238274037762B638BDD21A12F0CA
:20380000FF050ED000F1140212336C1E52FA84F4034400F1130213F8011F02F8011BA242BA
:20382000F9D1857462B638BD193A000838B511490546007802F068FC044604F0A7FD6B6848
:20384000A360A968E1602A7C62740023FE2022742077A374E376EB6863771B0606D401B9D7
:2038600038BD2046BDE8384004F0B8BD262002F071FB00BF193A000838B50A4905460078A6
:2038800002F042FC044604F081FD6B68A360AA68E260EA682046C4E90423BDE8384004F075
:2038A0009DBD00BFA552000838B50B490446007802F02AFCD4E90132E1681C0409D4048A11
:2038C0009D18A54205D812331844BDE8384005F05FBD242002F03EFB195400082DE9F04175
:2038E0001F490546007802F00FFC467C16F0020801D0BDE8F0812F79A9682D7B0A2F2CD849
:203900000A2D2AD804463A46203006F0310605F03FFD46F00206ED00FB006674E57484F821
:20392000128023752FB194F8203003F03F032A2B10D0A2690B4BE261636072B60A4B5B6890
:2039400003F5BB434033A360204604F047FD62B6BDE8F081054B6360EFE7232002F0FAFA1D
:2039600055540008C54E0008001000E05D4E000838B50D490446007802F0C6FB054604F0E1
:2039800005FD6368AB60A368EB6003B938BDE3682B6123696B6163692B7700236B77284638
:2039A000BDE8384004F01ABD713A000810B504460949007802F0A8FB237A032B0AD8037CD2
:2039C00013F0060206D143F004030374C0E90022826010BDFFF7E6FDA954000838B50C49BA
:2039E0000546007802F090FB037D6A68C26143F001030375044604F0C9FC72B6054A23695D
:203A000052681344A360204604F0E8FC62B638BD71690008001000E010B50479082C09D81E
:203A20000078064904F1200202F0A6FD044B8477436010BD282002F08DFA00BF193A00087E
:203A40006141000838B5074905464C22007802F093FD0446044B28790449636002F054FB41
:203A6000206138BD453A00084D3B0008A954000870B5067A032E0FD80949044620220078A1
:203A800002F07AFD0546074B207907496B6002F03BFBAE77A86170BD222002F05BFA00BFA1
:203AA000713A0008693B0008A954000870B50B490446007902F028FB267A0949054606F11D
:203AC0000802207802F058FD06710560E16832460530BDE8704005F05BBC00BFA954000806
:203AE000AD3A000800780249142202F045BD00BFA954000810B50446D4E9043184B0226867
:203B00000391E1680293A3680093019163680C48D1B202F01DFE842220780A4902F02CFDA8
:203B20002368C360636803610022042BC0E91D2203D8054B436004B010BD1E2002F00AFAEC
:203B400054940008F53A0008494F000808B5034604481A7E42F004021A7604F00FFC0020CD
:203B600008BD00BF5800002010B50446064804F005FCD4E90231E27F42F001020B44E277C9
:203B8000A360012010BD00BF7807002010B50446006AFFF7ADFB20B1A3681844A060012066
:203BA00010BD264B26491A6822F002021A601A6822F010021A600B6894F8262094F827101E
:203BC0008A429BB21CD2208B0132D2B203449BB29142238384F8262018D8628B9A421BD801
:203BE000A28B9A4218D3002384F82430154804F0C5FB6369E26813446361A360012010BDAB
:203C000001229142238384F82620E6D9A36822691344A360012010BD94F8243094F82520F8
:203C20000133DBB29A4284F82430DFD8064B5B7A002BD8D11F2002F08DF900BF002401408B
:203C40004C2401405C00002000000020EFF3108272B6084B1968890709D51968064821F059
:203C600002011960196821F010011960036882F310887047002401404C24014038B512491F
:203C80000546007802F040FA044604F07FFBFFF7DDFF6B686361A360AB6823612B7B84F858
:203CA00027305A1C84F826202A69E260D5E90501EA6984F825206083A18303B938BD2046AA
:203CC000BDE8384004F08ABBD551000810B5034C201D04F05BFB0023236010BD280000200A
:203CE000F8B583683BB31A4E32680446FAB1D6E90467184D6268A5F8DC224FF0000CA5F86B
:203D0000E032C5E90467D5E9022330463946A5F8DEC204F0AFFB0022002304F0D5FF08B9F7
:203D2000C5E902672046BDE8F840FFF70FBCFFF781FBA368DBE7064A06491268A1F8E03265
:203D4000012A00D0F8BDBDE8F840FFF7BFBF00BF28000020F80100202DE9F04F8022044601
:203D600085B0B648B64E0D46002105F039FB4FF480720021B34805F033FBB34B04EB4410BA
:203D800003EB800306F1040CD3F8C420CDF80CC067010CF17C0B3146A046D2F1000E0EF053
:203DA0001F0E02F01F03A84C58BFCEF10003034404EB83030132D3F8C83041F8043F594529
:203DC000EBD1DCF80000DCF87C308342444680F2C5809D4B9D495A8BA1F1800342B1C0F55D
:203DE000805043F8040B8B4207D01868002AF6D1404243F8040B8B42F7D1DCF80000002A35
:203E000040F0B180002D40F0ED80914BA3F1780500E0286804F07CFC044668688A4604F0D0
:203E200077FC2AF00047064621F000488946204632463946434604F047FF009418B934463B
:203E400000964746CA46AE68304604F061FC21F00049009A3B46494604F054FF20B12046D0
:203E6000514604F059FF064645F8046B784B9D42CFD1754E7748D6F8F012DFF8C8A105F09E
:203E800055F904F057FC0446B6F8EE020D4605F045F80146704805F049F901464FF07E5096
:203EA00005F044F904F046FC22462B4604F0E4FA02460B462046294604F0BEFD039F0446E6
:203EC0000D4656464FF000084FF000093B46D3E90030C01A04F01CFC42464B4604F0CCFA3E
:203EE00022462B4604F07EFC0437804689465F45E6E90289EAD1544BDFF868B1D3F8F44262
:203F0000204604F017FC804689464FF07E50214604F04EFF04F00EFCCDE9000100240025EC
:203F2000FAE902234046494604F05CFC22462B4606460F46DDE9000104F054FC02460B46FA
:203F40003046394604F098FAD34504460D46CAE90045E5D13B4805B0BDE8F08F3A4B5A8BBD
:203F6000002A3FF44FAF002D5AD13C4D039E05F1080405F5807A01E056F8040F04F0C8FB75
:203F8000E5E90201AA45F7D12F4BD3F8F452284604F0D0FB804689464FF07E50294604F0DC
:203FA00007FF04F0C7FBCDE90001A346DBE902234046494604F016FCDBE9002306460F4619
:203FC000DDE9000104F00EFC02460B463046394604F052FAEBE90201DA45E7D1194805B08A
:203FE000BDE8F08F18491E4B3A1901EB8202C43203F17C0101E053F8040B42F8040F8B4254
:20400000F9D111490A8B3B1901EB8303013A0021A242C3F8C41050D00A4805B0BDE8F08F07
:20402000094A0F4B274402EB8701002501F1C402C1F8C45003F17C0118E000BF60000020A1
:204040005C000020E0000020F8010020E0000020D800002084F9223E00007A44D800002040
:2040600064000020D801002053F8040B42F8040F9942F9D1234B1B8B013BA342CCD1214B39
:204080001A6C3046514201F01F0102F01F0358BF4B421C4901EB830301325B6C40F8043F7C
:2040A0005845EFD1002201F140030A6456F8042F43F8042F5E45F9D1AEE7124B1A6CC3F84F
:2040C00004233046514201F01F0102F01F0358BF4B420C4901EB830301325B6C40F8043FAB
:2040E0005845EFD101F1400356F8042F43F8042F5E45F9D1034A04480023136405B0BDE845
:20410000F08F00BFF8010020E0000020C0F30312064B53F8223000F00F009A68012303FA70
:2041200000F0104214BF18460020704718960008084B094A10B5044618791188FFF7E6FFC5
:204140000246064802F004FB2046BDE81040FFF7FDB900BF70070020E00500204495000895
:20416000F8B5877F044687B100210F460B46012523440131D87FFFF7C9FF6E00CBB200B1D3
:204180002F43A27F9A42F5B2F2D8227CBA4207D0637C7B40DB43DBB282EA07010B4210D1E7
:2041A00094F91C30257F6774002B04DB013DEDB2FF2D1ED02577D4E902321344A36001209E
:2041C000F8BDA17C22EA03023B40134307292374E6D862180131A1740848D37404F0CEF894
:2041E000FF232377D4E9023267741344A3600120F8BD024804F0C2F8DCE700BFE00100208C
:2042000038B58369044690F82100A56803F00101FFF77CFF814203D0A369E5610133A3613F
:2042200063695B1B002B05DBD4E902321344A360012038BD94F82020236907481D4442F096
:20424000010284F82020656104F098F8D4E902321344A360012038BDE401002000F00F02EE
:20426000012300099340044A52F8202009B9536170471361704700BF189600080000000099
:20428000F8B50546FFF762F93D4B00211868FFF7E5FF2B69002B62D03A4E3368002B5BD068
:2042A0006B68394C002B0CBF00231F238022002104F14400236405F093F82FA3D3E9002397
:2042C000D6E9040104F08EFA04F04EFD04F1400304F1C00243F8040F9A42FBD1238BA3B178
:2042E0002A4B00266A68002A0CBF00271F278022184643F8047C002105F072F8228B0136D0
:204300000346964203F18403ECDBD5E9032369686869A4F8EC22A4F8F832A4F8E41204F0BE
:20432000F9FD1B4904F002FF0346A869C4F8F03204F0F0FD164904F0F9FEEB69C4F8FC328D
:204340002B6AC4F800330023C4E9B533AB68A4F8EE32C4F8F402F8BDFFF76CF8A0E7094AB7
:2043600009491268A1F8EE32012AF4D1BDE8F840FFF7ACBCAFF30080000000000088C340E0
:204380007007002028000020F8010020C002002000007A44084B017910B504461868FFF733
:2043A0005DFF2046FFF7D2F8044B05481988BDE8104002F0CDB900BF70070020F801002062
:2043C0002C950008000000002DE9F04F7C4C678B238B83B00546002F40F0A680002B00F039
:2043E000DD803946631893F83C00FFF78FFE268B88400131B14247EA0007F3DBDFF8D0A130
:20440000DFF8D08177B1D8E90023DAE9040104F031F867A3D3E9002304F06AFC10B903B0C4
:20442000BDE8F08F002E00F0BD80002604EB86030021D86AFFF712FF238B01369E42F5DB60
:204440001827002B00F0AE80002604EB86030121D86AFFF703FF218B01368E42F5DB00292E
:2044600000F0A08005EB81012B461A68520043F8042B9942F9D1002604EB86030021D86A65
:20448000FFF7ECFE238B01369E42F5DB83B12E1F00216318013193F83C00FFF737FE56F818
:2044A000042F238B002818BF013299423260F0DB013FC6D1002B75D004EB87030121D86A8D
:2044C000FFF7CCFE218B01378F42F5DB002969D005EB81012B4653F8042B100248BF42F08D
:2044E0007F428B4243F8042CF5D1002604EB86030021D86AFFF7B2FE218B01368E42F5DBD3
:20450000DAE90423C8E9002351B12E4A05EB81012B6852F8040B1B1A45F8043B8D42F7D1BD
:20452000012003B0BDE8F08F002BF9D00FF28809D9E90089031FDFF898A001934FF0000BA3
:204540000BF10605DAE9046704EB850508E0DAE9040103F08FFF42464B4604F0B5FB30B1DE
:204560006868FEF7C5FE32463B460028EFD11649228B0B6823F002030B600B6823F0100337
:204580000B60124B01991B689BB241F8043F0BF1010B5A450191D3DC0120C2E7DFF830A014
:2045A000DFF83080DAE90423C8E90023B8E700BF9A9999999999993FFCA9F1D24D62603F33
:2045C000F801002004050020002401404C24014028000020F00100202DE9F04F604F87B0EF
:2045E0008046FEF7B3FF3B680BB9FEF723FF5D4E748B0023C6E9C433C6F81833C6F80C3357
:20460000002C40F09A80D8F80450002D00F09580338B93B1254606F1C8038022184643F864
:20462000045C002104F0DCFE328B01340346A24203F18403F1DCD8F80450202DA8BF2025A7
:204640004FF00008082DB8BF08254446CDE90244CDE9044402A8FFF7B7FE0028FAD0B6F8C1
:2046600018C0BCF1000F1DD03E480DF1080E0021D0F8C4305EF8049B5A4202F01F0203F0AB
:204680001F0A58BFC2F1000A01EB4112524406EB8202013101336145C2F8C89000F1840040
:2046A0000364E5DB08F101084545CFD1BCF1000F43D02D4CC5EB857804EB85044FEA880871
:2046C0004FEA85090CEB4C1B4FF0000A04EB08004FF0000E7545C8BF034608DD53F8041F4B
:2046E00042688A4284BF41601A60A342F6D10EF1010E754500F10400ECD10AF1210ADA457B
:2047000004F18404E2D1194CA4F51470043D08F1100804EB8C0C484454F8042B08EB000311
:2047200053F8041F83420A44FAD192FBF5F2A44500F1840044F8042CEED13B68012B0CD085
:20474000D6E9C53231880A48CDE90032D6E9C32301F0FEFF07B0BDE8F08FFFF7B7FAEFE7C5
:2047600028000020F8010020BC02002004050020249500082DE9F041124E338CA3B1804690
:204780000F4606F122050024012F06EB04030DD0297806EB84030134D86BFFF75FFD338CDB
:2047A000A34205F10205EFDCBDE8F08193F85C00FFF7ACFC29892880B1EB080118BF0121B9
:2047C000E7E700BFE0050020F8B58368002B6CD0434F3B680546002B64D0424C002631463E
:2047E000802204F1F000C4F8EC60A66604F0F8FD3146802204F16C0004F0F2FD32A3D3E947
:204800000023D7E9040103F0EDFF04F0ADFA04F1EC0304F5B67243F8040F9342FBD1686872
:204820000121FFF7A7FF291D0EC95B00C4E95D33A4F870112869A4F8662003F059FF24A323
:20484000D3E9002304F0F8F823A3D3E9002303F0C9FF04F089FA4008C4F87C016A69224BFD
:2048600022495B68A16051000022C4F880112266D5E906178EB206FB000003442E6A1C4862
:20488000A4F86420A4F88411E360A4F88671A4F87221A4F8886103F0A1FD2846BDE8F84061
:2048A000FEF754BEFEF7C6FD97E70E4B0122A3F87221FEF74BFE0A4B1B68012B00D0F8BD4A
:2048C000BDE8F840FFF702BA000000000088C3400000000080842E4100000000389C9C419A
:2048E00028000020E0050020001000E0D1490008E4050020000000002DE9F041284906464C
:20490000007801F001FCF36804461BB901234367BDE8F081002503694567D6F80480BBB1D9
:2049200000F114076319043793F85400FFF7EEFB57F8041CF86404EB8503B1EB0801586B4C
:2049400018BF0121FFF78AFC23690135AB42E9D8B06803F0CDFE0EA3D3E9002304F06CF8B4
:204960000DA3D3E9002303F03DFF04F0FDF940082066F3680B4A5B00C4E9163353681844A9
:20498000A0602046BDE8F04103F028BDAFF300800000000080842E4100000000389C9C41BD
:2049A000F53A0008001000E0074B020900F00F0053F822200123D16803FA00F0014214BF87
:2049C00050611061704700BF189600080000000070B5874C238C4BB1002504EB8503013514
:2049E000D86CFFF7E1FF238C9D42F6DBD4F87831226E013BC4F87831002A00F08A803BB188
:204A0000DA0700F19880B4F87231012B40F08A80D4F8EC50774A6B4203F01F0305F01F0652
:204A2000D2E9040158BF5E426FA3D3E9002303F0D9FE04F099F904EB86060135C6F8F0005F
:204A4000A36ED4F87821B4F88861C4F8EC50584200F01F0003F01F0158BF414204EB81018C
:204A600002EBD27201335210012ECA66A3663FD10021D4F87431C4F878310846A4F888117D
:204A8000FFF778FEB4F87001B0FA80F031464009FFF770FE584AD4F878315268D4F874211D
:204AA000D4F88011D21A8A42C0F28480994240F383801B0293FBF1F3C3F580734F49D4F87C
:204AC0007C21B4F884014C4D83F3080302FB00F031F813304A496D6803FB00F381FB0301BC
:204AE000DB172A44C3EBA1131344E360012070BD444803F04BFC00210846FFF73BFE002385
:204B00000822A4F86420A4F87231C4F87831012070BD3D4B1879FFF7F9FA012854D0D4F83E
:204B200078316CE7384B1879FFF7F0FA01283FF46FAFD4F87831B4F88621520093FBF2F180
:204B400002FB1132002AA9D1D4F8EC50294A6B4203F01F0305F01F06D2E9040158BF5E42A3
:204B600021A3D3E9002303F03DFE04F0FDF804EB86060135C6F8F000A36ED4F87821C4F8EA
:204B8000EC50584200F01F0003F01F0158BF414204EB810102EBD2725210CA665A1CA266D1
:204BA000D4F87831D4F87421D4F88011D21A8A42BFF67CAF13027DE70F4AD4F87C31526825
:204BC0001344E360012070BD0A4907A3D3E90023D1E9040103F006FE04F0C6F8D4F8783134
:204BE00020660CE7AFF30080000000000088C340E005002028000020001000E03496000880
:204C0000D34D6210E405002070070020000000002DE9F04772B6424F424D3E68DFF80C81C3
:204C2000DFF80CA14EF660290BE0D8F804105A1AF02A37DC701A00285BDB62B6002A39DC74
:204C400072B62C686368002B4DD1206AFFF7ACFE6369013B39D0D4E90210B4F910206361D9
:204C600002444318C4E902322068D0F808C0A3EB0C02002AD9DB696828608A689A1A31EA06
:204C8000220128BF0146084609688A689A1A002AF9DA2160D8F80410046063465A1AF02A61
:204CA0006C60C7DD204B00215A609960596062B6BDE8F087D8F804209A1A002AC0DDD8F819
:204CC00004209A1A002ABBDDF4E7204601F00CF9A3680028C8D16A682168296094428B688A
:204CE000A3D16960A1E720469847A3680028BBD1F1E7524507DB95F90800002809DA01EB0D
:204D000009063E6099E7687A0028F4D12D2001F021F901F53B51203139604FF41672C1E760
:204D20007C0700200000002010E000E0001000E0402BFEFF2DE9F04F90F800A0444985B049
:204D4000504601F0E1F9434B81685A680446C068521A904203D95A68521A9042FBD8D4E99D
:204D600000823C4B218AD3F80490019204F11207002959D09B467B18039317F8016B08237D
:204D8000029333064D462BD5DBF80410A1EB09019529F9D972B64046DBF80490FFF704FE98
:204DA00062B6019BA9EB0505AB4242D97600DBF80410A1EB09014D29F9D972B64046FFF7BA
:204DC000F3FD62B6DBF80450DBF80410491B1729FAD9029B013B029323D033064D46D3D472
:204DE000DBF80410A1EB09019529F9D972B64046DBF80490FFF7D8FDDBF80410A1EB090149
:204E00001729F9D94046FFF7CFFD62B6019BA9EB0505AB420DD9029B013B4FEA4606029320
:204E2000DBD1039B9F42A8D10A4B5B68A360012207E040460021FFF711FA064B5B68A360EA
:204E400000220548514605B0BDE8F04F01F080BC19540008001000E08C94000838B50446C2
:204E6000C068FFF7A1FDA37C627C14490133DBB282F00102012B49686274A37419D0042B04
:204E800005D8A268A3691344A360012038BDA368E2690B4D65601A44891A881CA26948BF85
:204EA000481D02EBA00219441144A160E261012038BDA268891AE161E4E700BF001000E089
:204EC000C54E0008F8B50446C068FFF76DFDA37C657C267DE7690133DBB285F00105B34214
:204EE00065742CD204EBD30103F0070291F8201041FA02F205F0010502F0010295423946EE
:204F000007D016E092F82020024102F0010295420FD10133DBB2B34204EBD30203F0070097
:204F20003944EFD3A368074A62601944A1600120F8BDA268A3741144A1600120F8BD394614
:204F4000F0E700BF6157000870B50446254803F015FA23694BB1002504EB85030135586CFF
:204F6000FFF722FD23699D42F6D3A26D531EA36573B1D90709D5E16D8A4229D01A4A236E76
:204F800052681344A360012070BD616F0129F2D1204603F0FBF91449A36D49682269C4F840
:204FA00080105B080121C4E91E1372B104F16406002504EB850356F8041B586BC9B2FFF73F
:204FC0004DF9236901359D42F3D30020606770BD054A5268C4F880205B080122C4E91E2337
:204FE000CCE700BFE8010020001000E0F0B5414B414D0409012653F8243055F824409D095D
:2050000005F1804505F5043503F01F032F6806FA03F300F00F003B432B6006FA00F00029DF
:205020004ED1B2420BBF032507251026142600230F274FF0010C09E0482E03D10CFA03F1FD
:205040000140216122600133082B14D020FA03F19A00C90707FA02FE05FA02F2F3D5216803
:20506000282E21EA0E0142EA0102E5D10CFA03F101406161E6E70F274FF0010C09E0482E30
:2050800003D10CFA03F10140216162600133102B15D09A0020FA03F1203AC90707FA02FE96
:2050A00005FA02F2F2D56168282E21EA0E0142EA0102E4D10CFA03F101406161E5E7F0BDA3
:2050C000012908D002290CD0002A0BBF0F250B251C261826ABE73AB1012A08D004252E46D2
:2050E000A5E700252E46A2E7082528269FE7082548269CE7FC9500081896000838B5002384
:205100002D4A1C4601E012F8013F834205D00134112CF8D12E2000F01DFF28490A68FE2B50
:2051200042F400720A6041D1254B4FF400021A60244B254D1A681A602A68244822F080525D
:20514000016822F44042043342F4004221F000512A60016019681E4A21F400611960116801
:2051600021F470011160116811601A6822F460221A601A6842F460221A601A6842F48012BC
:205180001A601A6842F001021A601A6842F008021A601A681207FCD41968094A41F00401B7
:2051A000196013685B07FCD4204638BD184600220221FFF71BFFBBE71894000818100240FB
:2051C0000824014004240140041002402C1002402C24014010B504460079FFF78FFF28223E
:2051E0000346064920781C4601F0C6F90123044A80F826300462426010BD00BFD55100086B
:205200008D3B00086F2838B50CD804460A46EFF3108572B6012152B2FFF7E8FE85F310880B
:20522000204638BD2A2000F095FE00BF0D4B026870B51A8042680C4E0C4D0446C0681A8499
:2052400003F068FE0A4903F071FF01210346207AB361FFF7D7FF28712046BDE87040FEF711
:2052600075B900BFE005002028000020700700200050C34710B50A490446007800F044FFF6
:205280002279817F914207D90346217B207A9C18FFF7B8FFE07710BD272000F05BFE00BF6D
:2052A000193A000810B5084904462422007801F063F9217A034620791C46FFF7A3FF034B63
:2052C00084F82100636010BDA552000801420008F8B5012200F00F050E46040902FA05F52C
:2052E000EFF3108772B60021FFF780FE054B53F824301EB95D6187F31088F8BD1D6187F335
:205300001088F8BD189600086F2810B504D80446FFF7DEFF204610BD2B2000F01BFE00BFEF
:20532000F8B5124D43686E8B0446007A56B1063305EB8305FFF7E2FE68602046BDE8F84060
:20534000FEF704B90A33314605EB8307FFF7DCFF78606368207B31461D44FFF753FF85F8C1
:205360003C002046BDE8F840FEF7F0B8F80100200F4B026870B51A80D0E9011204460069F6
:205380001A83598303F0C6FD0A490B4E0B4D03F0CDFE00210346207BB361FFF7B5FF002138
:2053A0002860FEF75BFF2046BDE87040FEF7CEB8F80100200050C34728000020700700208E
:2053C000F8B5144D436804460021007AEF18FFF719FF666887F85C000021207AFFF794FF2D
:2053E0000E3605EB860670606368217D207B123305EB8306FFF788FF70606368D4E9046220
:2054000005EB430120464E85BDE8F8404A86FEF79DB800BFE005002070B50446002100795B
:20542000FFF772FFA3681A040FD49EB206F1140205460749207892B201F09EF80560E368EE
:2054400043602369C360068270BD252000F082FD195400082DE9F04104462C22114900786B
:2054600001F08AF894F808806768E668B8F10001054618BF0121F8B2FFF7C4FE012128747A
:20548000F0B2FFF741FFE8602369AB61B8F1000F0CBF01231123B74208BF43F020036B7484
:2054A000BDE8F0815554000870B5054614220B49007801F061F8AE68B6FA86F10446490990
:2054C0002879FFF721FF94F91030E060002E14BF092201221343237470BD00BFA9540008DB
:2054E000F8B5077C032F22D804461349007800F00BFE0646102001F011F8012105462079BD
:20550000FFF780FE00212870207AFFF7FDFE6860207B0021FFF7F8FE2F73A860337C13F007
:20552000060F06D143F0020333743560F8BDFEF739F8FEF737F800BFA95400082DE9F04101
:20554000D0E90068F7B284B004461E49384600F0DBFDD4E904230393E36802920546A068AA
:205560000090019339461848324643465FFA88F701F0EEF8032F21D805EB870322695A618D
:2055800062695A62207A0021FFF73CFEEB19002183F85400207AFFF7B7FE07F10C0605EB66
:2055A000860607F110037060217D207B05EB8305FFF7AAFE686004B0BDE8F0811D2000F076
:2055C000C9FC00BFF53A00085494000870B51449044682B0007800F097FD26798369B342A6
:2055E0001BD905460021207AFFF78EFE06F10803002145F82300207BFFF704FE2E44D4E9EA
:205600000235226886F83000CDE9003505486368114601F09DF802B070BD1B2000F09AFC9B
:20562000716900083C940008B1B110B4014404464FF6FF7014F8013B434083EA0313DBB26C
:20564000000ADA0040EA03208C4282EA131380EA0300EFD110BC70474FF6FF70704700BFDF
:2056600010B50B789B060C464FF0010108D5FFF72FFE237803F0300343F00103237010BD56
:20568000FEF7ECFD237803F0300343F00103237010BD00BF70B50446007CFEF737FDA37CE2
:2056A00004EBD30503F00706012195F82020B14078B10A43D2B285F82020E27C0133DBB26D
:2056C0009A4209D9A268E169A3740A44A260012070BD22EA0102EEE7E06804F11101FFF7DA
:2056E000BFFF637C034843F00803637402F046FE002070BD8007002038B50446007CFEF7DB
:2057000005FD637C68B143F004036374A37C5A1C3F2BA2740FD8A368E2691344A3600120B1
:2057200038BD5B07F2D50C4BA07463602046BDE83840FFF7AFBF0025E068E57404F1110169
:20574000FFF78EFF637C054843F00803637402F015FE284638BD00BF9556000880070020C4
:2057600038B5C57C0446CDB1427C93060AD4E269A3681149616003EB82030022A274A360DF
:20578000012038BD007CEFF3108572B6012102F01002FFF72BFC85F31088E8E700F11101B3
:2057A000C068FFF75DFF637C044843F00803637402F0E4FD284638BDF956000880070020FB
:2057C00070B582B016461D460A46009304469DF818100F48334600F0BBFF15B92369B34200
:2057E0000FD9637F227F0133DBB29A42637701D902B070BD074B5B7A3BB10023637702B04C
:2058000070BD6369B342F8D2EBE7212000F0A2FB6C940008000000202DE9F04F077C17F029
:20582000060F83B064D00646B80764D5994633688846197B986801F002011446FEF70EFD7E
:2058400017F00103019368D104F1FF3A35685FFA8AFA002C4CD009EB0A03009309F1FF3BB8
:205860001BF8014F4FF008094FF0000A19E0A868FDF77CFD04F080016868FEF7EFFCA86881
:20588000FDF774FD4FEA4A022878D1B2FEF73EFC640041EA0002B9F10109E4B25FFA82FA1C
:2058A0001CD0287BC20704F08001E0D46868FEF7D5FCA868FDF75AFD4FEA4A022878D1B2CE
:2058C000FEF724FC41EA0002A86864005FFA82FAFDF74CFDB9F10109E4B2E2D1B8F1000F4B
:2058E00001D08BF800A0009B9B45B9D1019B03BB03B0BDE8F08FFB07FAD5C7F3C001F068DA
:2059000007F00807FEF7AAFCB7FA87F1F068490903B0BDE8F04FFEF7A1BCF068C7F3C00157
:2059200004F1FF3AFEF79AFC5FFA8AFA3568002C91D107F00807E7E7F0B51249124F87B03A
:205940000546007800F0E0FBB9230446ADF8143000697E6805AB02220121FFF75DFFE18AA8
:205960009DF815207B680948CDE90221627E0192A28A296800929B1B324600F0E9FE07B0D2
:20598000F0BD00BF453A0008001000E074940008F0B5474B04460D4693E8070085B001ABDD
:2059A00003C320691A70012101AB0922FFF734FF627E9DF8061002F11A0311F0F0002344F9
:2059C00017D0F02815D0A118FF221A71DA709A705A708A76637E0533DBB22D2B637603D9AD
:2059E00029462046FDF7CAFD237E9B0743D405B0F0BD9DF8080010F0F00639D19DF80A70AF
:205A000017F0F00601D0F02EDDD19DF80B60902ED9D19DF80C6026F08006202ED3D84FEAB5
:205A2000870C22440CF0600C00F01F004CEA000001F01F019DF805C082F81AC041EA47117E
:205A40009DF809209DF807701871D9705F709A70637E0533DBB22D2B63761FD81E2E22D9BC
:205A6000E38A0133E382134802F088FC05B0F0BDF02EA8D1C2E7204602F088FC237E23F01D
:205A80000403237672B60C4AE36852681344A360204602F0A3FC62B605B0F0BD2946204643
:205AA000FDF76CFDDAE7023E1E2EDCD99CE700BF0C94000858000020001000E02DE9F043EC
:205AC00007782F49054687B0384600F01DFBAE6804467EB102F05AFC6B68A360AB68E360C4
:205AE0000022012362612383204602F077FC07B0BDE8F08302F04AFC224D26762D23ADF825
:205B0000143031462069D5F8048005AB0222FFF783FEB926D5F80490212501E0013D14D01C
:205B200005AB2069ADF8146002220121FFF774FE9DF8153033F0800307D0202BEED839467E
:205B40002046FFF725FF013DEAD1637E8BB99DF81520E18A0391CDE90132A38A00930A48E3
:205B6000A9EB08034246394600F0F2FD07B0BDE8F08339462046FDF701FD637EE7E700BF8C
:205B8000453A0008001000E07494000810B504460549007800F0B8FAA36822790021BDE89B
:205BA0001040FFF739BE00BFA954000870B5057809490446284600F0A7FAA6682479334683
:205BC00022460121FFF728FE3346224629460348BDE8704000F0BCBDA954000864940008C1
:205BE000704700BF10B48268D0E90034EFF3108172B6DBB2012B07D0022B0BD0D2B222704B
:205C000081F3108810BC704792B2228081F3108810BC7047226081F3108810BC704700BFB0
:205C200070B40D4A03780D4C126825780133DCB202EBC40204E052F8084B8C4207D001332F
:205C4000DBB29D421646F6D8002070BC70470370706870BC704700BF8C0A0020880A002056
:205C6000054A0649136810B4013B0C680460086010BC1360704700BF140B00207C0A002031
:205C800010B50446054802F079FBA3682269207D1344A36000F0010010BD00BF680A0020A6
:205CA00070B50446C06958B10E460025D0E900233146E261C0E900559847E0690028F5D120
:205CC000BDE87040014802F059BB00BF100B002008B5037DDA0709D523F00503817D41755B
:205CE00043F0040303750C38FFF7DAFF002008BD10B50446074894F8203043F0040384F80A
:205D0000203002F03BFBA368A2691344A360012010BD00BF100B002010B504460548A3684C
:205D2000A2691344A36002F029FB607F00F0010010BD00BFF807002010B5044602F026FB4B
:205D400004F10C0002F022FBE36933B100211A461B68C2E90011002BF9D10023238484F808
:205D60002230E36110BD00BF38B50446007BFEF7CDF994F8205088B1ED4305F001058DB9EE
:205D800094F82230013B13F0FF0315D0A268616984F822300A44A260012038BD05F00105FC
:205DA000002DEDD00F49A26994F8213084F82230C4E90112012038BDE06990F82030DA0713
:205DC0000DD523F0050394F8231080F8211043F0040380F82030FFF763FF284638BD284633
:205DE00038BD00BFE95D000810B50446007BFEF78DF9A36822691A4494F8203030B1DB43CD
:205E000003F0010333B1A260012010BD03F00103002BF8D1034BA26163602046BDE810405D
:205E2000FFF7A2BF695D000801790078FFF76CBA38B50446A0F13405284602F0A7FA237A90
:205E400054F80C2C002144F82C1C44F81C1C54F8201CD8064CBF521AA2EB5102002A03F0CB
:205E6000140343F00803C8BF52420021237244F8201C686A44F80C2CFEF7F0F9217ACB06F4
:205E800005D409E0036844F8083CFFF7E9FE54F8080C0028F6D138BD286A01F00401FEF7B7
:205EA000DDF9F4E710B504468069FEF77DFD94F82C30A26883F00103D9074CBFE1682169A3
:205EC00084F82C305B070A4402D4A260012010BD6369D11A0029F8DB024A62601A46A26051
:205EE000012010BDC95F000838B5C46A034614B94461204638BDB4F90810626890F83C0000
:205F00002568DD6219828D18C106DD6010D598686189596102449A60227B12F0010F9A6AF5
:205F200012D1114499622046FFF79AFE012038BD61899869024448009A619A605861227B60
:205F400012F0010F9A6AECD0891A586A9962FEF72BFDE8E708B5014672B6014803F04EFA73
:205F6000A00A002038B50446006AFEF71DFD144A63695568E269013B1544DA07636102D564
:205F8000A560012038BD6BB1E168A369B4F910200B440A44591B0029A361E260F0DBA3604A
:205FA000012038BD2046FFF79FFF0028EAD0A3685B1BE7D5034A9342E2DA1920FFF7CAFFDC
:205FC000001000E0402BFEFFF8B5476A002F7AD0BE683B684362351E18BF0125044629461B
:205FE0008069FEF73BF93846FFF73AFEAEB1216AB14212D9E269002A54D1606A94F82C30CF
:2060000045F00205002864D1A268606103F010032B4384F82C30B31832E094F82C30B6FA5B
:2060200086F183F01002C2F300124909914214D0E26992B1A368616A45F004051A4400296B
:2060400037D194F82C10626101F01001294384F82C10A90723D533440EE0606AC0B100211E
:206060004268626145F0040503F010032B4384F82C30A1B1A3683344991A00290FDA216A05
:20608000154A6260891BC4E9023621610120F8BD03F010032B4384F82C306061F8BDA2603A
:2060A0000120F8BDA368616A45F006051A440029C7D04968521A002A08DB0A4694F82C3074
:2060C00005F00201CDE71620FFF744FF1420FFF741FF0221C4E700BFA55E000808B50D20B9
:2060E000FFF738FF08B5054A537A23B1022B1CBF0023537208BD0220FFF72CFF00000020AE
:2061000008B50720FFF726FF08B5084B1B78834209D9074B1B6853F830208A4203EBC0004C
:2061200001D1406808BD0B20FFF714FF880A00208C0A002070B50C4905460078FFF7E4FF6E
:2061400072B690F82030DB0701D462B670BD00F10C060446304602F019F96B68636130466F
:2061600002F03CF962B670BDBD65000838B50F4905460078FFF7C8FF044672B6FFF7DCFD83
:20618000012384F820306B68A360AB68A36123B9EB6884F8223062B638BD204602F01EF9A9
:2061A000EB6884F8223062B638BD00BFBD65000838B5174905460078FFF7A6FF044602F0E1
:2061C000E5F86B68A360AB6863612B7B84F82130CBB12A69226184F822306B690D4A626075
:2061E000002B14BF0323022384F82030287E0A49FFF78AFFEB6984F82330E0612046BDE8A3
:20620000384002F0EBB884F82030E36138BD00BFE1650008E95D0008BD65000838B50E49A3
:2062200005460078FFF770FF0C4904462879FFF76BFFEFF3108272B6A36B4BB9C369084D67
:2062400004F13401C4E90D35C16182F3108838BD1A20FFF77FFE00BF05660008BD650008F8
:20626000315E000810B504460A490078FFF74CFF626872B643694BB990F83C30826023F0E1
:206280000803826180F83C3062B610BD1720FFF761FE00BF0566000810B5044609490078B0
:2062A000FFF732FF6368002B14BF0223002372B690F83C2022F00202134380F83C3062B632
:2062C00010BD00BF05660008F8B51D4905460078FFF71AFF044602F059F8636A6BBB2E79B3
:2062E00094F82C50A069371E18BF01273946FDF7B5FFB6FA86F385F010025B09C2F3001237
:20630000934201D0E3692BB905F010053D4384F82C50F8BD0B490C4A4968626005F010024C
:206320003A4342F004020B4484F82C206361A3602046BDE8F84002F051B81320FFF70AFE5B
:2063400085660008001000E0C95F000810B5074904460078FFF7D8FE72B6436A1BB9636813
:20636000036262B610BD1520FFF7F4FD8566000838B5104905460078FFF7C6FE044602F0C5
:2063800005F86B685B00DBB2637783B113F0C00F0DD143F00103084A6377536803F56A43C4
:2063A0006033A3602046BDE8384002F017B81120FFF7D0FDE9660008001000E0F8B5EFF339
:2063C000108572B6094A106868B10949094C0B682668076817600133B34288BF23600B6030
:2063E00085F31088F8BD0E20FFF7B4FD7C0A0020140B0020180B002038B5274904460078BC
:20640000FFF782FE0546FFF7D9FF6368436023894381002B3DD0E36803810023037372B647
:2064200095F83C3003F00101C3F34002914205D0027B42F0010283F0010302736A69B2B9F2
:2064400013F0080203D0FFF70BFC62B638BDE96A85F83C300260A9B12B6B18602863284653
:20646000FFF742FD284601F0B9FF62B638BDEA6A85F83C30002303603AB12B6B186028637C
:2064800062B638BDC5E90B00E9E7C5E90B0062B638BD1820FFF75EFD0566000870B51D4919
:2064A00005460078FFF730FE0446FFF787FF6E684660AB68836072B6636A0022026023B170
:2064C000A36A1860A06262B670BD94F82C305A07C4E9090016D443F004029B07666184F8E9
:2064E0002C200AD4204601F051FF0B4B2046C4E9013601F073FF62B670BDA3689B1B002B97
:20650000F9DBEFE76269921B002AE4DA1420FFF721FD00BF85660008C95F000838B50A4D03
:206520000A4B2C68211899420BD8C31C23F0030302462344002120462B6002F051FF20461A
:2065400038BD1020FFF706FDEC070020007E002038B5074C236843B90568E8B2C000FFF7E8
:20656000DDFF044B20601D7038BD0920FFF7F2FC8C0A0020880A002070B50D4B1C788442A2
:20658000034611D910460B4A1DB2126852F8356002EBC30446B9084B1B882BB942F83510E9
:2065A000FFF7BCFF606070BD0A20FFF7D3FC00BF880A00208C0A0020780A002008B5242282
:2065C00000780449FFF7D8FF034A044B4260036108BD00BFBD650008F15C0008D15C00084F
:2065E00010B50749044624220078FFF7C5FF217A034620791C46FEF705FE207310BD00BFCE
:20660000E165000870B505461A4900784022FFF7B3FFEE68002ECCBF0421002180F83C10BE
:2066200004462879FEF770FE20620021287AFEF76BFE114B60624FF040421988A2622A6952
:20664000E2610023C4E90B3391B90C4B19780F299CBF1021197042B9002E06DA94F83C3069
:2066600043F0100384F83C3070BD054B636070BDFFF734FD05660008780A0020800A002099
:20668000655F00088168003938B518BF012104460079FEF739FE3022054610492078FFF7B3
:2066A0006BFF8561D4E90232003B18BF012312B143F010035BB20A4A80F82C3023691288FF
:2066C000C3610023C0E9093332B9064B1A780B2A9CBF0C221A7038BDFFF700FD856600089D
:2066E000780A0020800A002070B50546202200781449FFF741FF6B68134A4260052B1ED899
:206700000646A3B10124224605EBC20315F832005968003918BF0121FEF774FD6B683219E1
:206720000134E4B201339C42D0722246ECD30022064BB28349F27C21B161736170BD12204E
:20674000FFF708FCE9660008195D0008FC0700200FB42DE9F04FDFF80C8285B098F80030D5
:20676000DDF838A0DBB223B105B0BDE8F04F04B07047DFF8F4B1012288F800209BF8001025
:206780000FACC9B20394DFF8E49199F80060F6B2B14205D389F800301E468BF80030194655
:2067A0009AF80150AB19602B2F4640F2CC80591A602907D9002388F8003005B0BDE8F04F6C
:2067C00004B07047002789F800709BF80010C9B261480090761A3246014402F0E7FD8BF839
:2067E0000070F3B25D4A89F80030136843F0800313609AF801502F46009B052D03EB060B64
:2068000065D99AF802109AF80030DAF804708BF80230033D5D440BF10303002953D09D42CB
:20682000C0F096807A180196924630E054F8041B01F120027F2A22D901F58052B2F5804F20
:2068400018D301F50022B2F5001F0ED301F18062B2F1805F04D30A0F62F07F0203F8012B4E
:206860004A0D62F07F0203F8012B8A0B62F07F0203F8012BCA0962F07F0203F8012B01F07A
:206880007F0103F8011B57451CD09D4260D317F8012B052A3CD0C9D9063A012A58D8A4462A
:2068A000E91A5CF8086B8E4228BF0E4603F8016B324661681846644602F06AFD5745034615
:2068C0003344E2D1019EA3EB0B03DF1CFDB2244B009A1B789555FC1E8BF801302146584650
:2068E000FEF7A2FE5F442E44020A7E230BF80420F6B207F8020C07F8013C184A89F80060E6
:20690000136843F080031360002388F8003054E754F8040B0278591C6AB18D4202D815E0C2
:206920008D420BD001F8012B10F8012F002AF7D1CA1A013AD2B21A700B46A4E7EA1A013A16
:20694000D2B22946F7E7044B009355E70022F2E70520FFF7FFFA00BF840700200C4400403F
:2069600054000020690A0020E5070020E407002030B51049044683B000783422FFF7FCFD81
:206980002368C36063688361042B0FD800250A4B057503612268094963684160CDE90055D9
:2069A00007481146FFF7D4FE03B030BD1C20FFF7D1FA00BF71690008B0710B00815C00081A
:2069C0003C94000870B50678154982B005463046FFF79AFB044672B690F82030DA070AD556
:2069E00023F00503297980F8211043F0040380F82030FFF755F9204601F0C8FC04F10C00CF
:206A000001F0C4FC002294F8213084F8202062B6044800923146FFF79BFE02B070BD00BF70
:206A2000BD6500080495000870B504780B4982B02046FFF769FB72B690F82050866962B67D
:206A4000007BFDF763FB33460090C5F3400204482146FFF77DFE02B070BD00BFE165000856
:206A6000FC94000810B504780D492046FFF74CFB72B690F83C30826A13F0100F436914BF9B
:206A8000D21AA2EB5302002AB8BF524262B60548214602F14042BDE81040FFF759BE00BFF1
:206AA00005660008F4940008034602485A681978FFF74EBEDC940008D0E90031EFF3108215
:206AC00072B6DBB2012B08D0022B0DD00978C9B282F310880748FFF73BBE098889B282F36B
:206AE00010880448FFF734BE096882F310880148FFF72EBEE4940008D0E9001240F6BC33B1
:206B000099420DD8D2B2501840F6BD33984202D9C1F1BD02D2B2054B05480B44FFF718BE41
:206B2000024B034800220B44FFF712BE449800082C940008064A0749074B526809681B683A
:206B40000648914294BF1946591CFFF701BE00BF001000E0FC0A0020000B0020C4940008D8
:206B6000024B03485968FFF7F3BD00BF001000E0CC94000810B50A4A0A4B11885B7A0A4ACF
:206B80000A48126882B0A1F10A04003918BF0121003B009418BF0123FFF7DAFD02B010BD0F
:206BA000780A002000000020F0070020D4940008124B1888E0B1013830B41AD0104A114B41
:206BC00015681C7800222B4619460132234482420B60F9D102FB04540B4B0C4A0C491D604C
:206BE00000232360126809680A4830BCFFF7B0BD7047034B1D682C46EEE700BF780A002031
:206C0000840A0020800A00207C0A0020180B0020E80700203C980008F8B5184E338853BB6C
:206C2000174A1378032B9CBF042313701A46154B19680546144800240B461F461344834257
:206C400012D80134B4F5805FF7D12746581AFFF765FC0E4A0E4B10601C603780FFF7A8FF9E
:206C60000C4B2A681A60F8BD14B13B46A7B2EDE70F20FFF76FF90C20FFF76CF9780A0020D3
:206C8000800A0020EC070020007E0020840A0020E8070020F00700202DE98048B84BBBB079
:206CA0000CAF5B687B62B74A92F90830002B00F06C84B34B5B683B6172B692F90830002B37
:206CC00040F0358562B6AE4B3A695B689B1A7A6A1A443A62AB49AC48012200230A7287F897
:206CE000383001F043FB48B3FF2387F8383007F13809A6494846FEF793FF0446F0B1237F2F
:206D0000772B00F25F8100263546637F2A4601352B4113F0010340F04D81217F62690A44AC
:206D2000052D935506F17C06EFD10131217748469649FEF775FF04460028E0D1944801F070
:206D400015FB58B3FF23934C8D4E934D87F8383007F1380921464846FEF762FFF0B190F8C8
:206D600020305A07F6D5D6F804C072B690F8202090F8213022F0040180F8201062B697F8D6
:206D80003810CDF800C0284602F00102FFF7E0FC21464846FEF744FF0028E0D17F4801F033
:206DA000E5FA002800F0E081FF2307F1370A87F83730C7F828A07A49B86AFEF731FF04465F
:206DC000002800F0D181237DDB0740F1CD81E369002B40F3C981002207F13805C5E902222B
:206DE000BA636A60A369002B00F09D8193461646A31993F83000FDF789F9A369B040013612
:206E0000B3424BEA000BF3D85D4A5068654AD2E900124FF00009914508BF8842804603D24D
:206E200010F1FF3849F10009BBF1000FC3D1B8EB010069EB0201FB6102F07EF85A4902F034
:206E4000C1F85A4902F072F902F02CFAFB697862002B72D0002606F10803002154F82300FE
:206E6000FDF7FCF9A3690136B342F4D81826002B63D04FF0000A0AF10803012154F82300A9
:206E8000FDF7ECF9A1690AF1010A5145F3D8002953D005EB81012B461A68520043F8042B3B
:206EA0009942F9D14FF0000A0AF10803002154F82300FDF7D3F9A3690AF1010A5345F3D819
:206EC000A3B1AB464FF0000A04EB0A030AF1010A93F83000FDF71AF9DBF80020A369002839
:206EE00018BF013253454BF8042BEDD8013EBED11BB306F10803012154F82300FDF7AEF9EF
:206F0000A2690136B242F4D8BAB105EB820255F8043B1E0248BF43F07F43AA4245F8043C7F
:206F2000F5D1002505F10803002154F82300FDF795F9A3690135AB42F4D8114B19495A68D8
:206F40000A607B6C1A4800224A60217B05933B6C0493FB6B0393BB6BCDE90183A38B009323
:206F600097F82430FFF7F4FBE369013BE361002B7FF421AF237D23F0010323751BE700BFFF
:206F8000001000E000000020F8070020E9660008100B0020BD65000804950008680A0020D3
:206FA00071690008700A002000007A44C0E1E44C449400082244107BFDF7A8F8031E18BF69
:206FC0000123AAE6637F6569BD6203F0FE0B84F81DB001267C624BFA06F313F0010333D19B
:206FE000AB670136062E05F17C05F4D1D7E90942D2F86802D2F8F43097F838101546926F78
:207000000290D5F8EC010190D5F8700100909048FFF79EFB6269657F012077320646002178
:20702000A2F1780303F8011F9A42FBD106FA00F301300628C2F8011025EA030502F17C02DA
:20704000EED16577217754E62C782846012302E00133782B14D010F8012FA24259B2F7D002
:2070600077290DD02C46762014F8778F14F801CDC4454FFA80FE06D10138F7D1A867B0E751
:207080000020A867ADE7BEF1010F5FFA80FCF7D015F800A0EC5C544500F02483D81C604514
:2070A000EEDAACEB030301338C45C3F38708C0F25D860020864601E014466A5CA24201F1C9
:2070C000010118BF013049B2964418BFC0B28C455FFA8EFEF0DAF045D2D803EB4303C3F33F
:2070E00087037345CCD3431CC3F347037345BEFBF3F0C5D849F27C2303FB00F001F008FBA3
:20710000544B002201F06EFB02460B464EA1D1E9000101F091FC504B002201F063FB01F096
:2071200023FEA8675DE74D4A50684D4AD2E900124FF00009914508BF88428046BFF477AEDB
:2071400018F1FF3849F10009B8EB010069EB020101F0F2FE434901F035FF434901F0E6FFBD
:2071600002F0A0F87862E8E6404801F0FFF8D8B1FF233F4DDFF8108187F8383007F13809AE
:2071800000260AE0A36F7BB1D4F88030B4F87C20217B4046FFF7DCFAA66729464846FEF7F0
:2071A0003FFD04460028EDD1324801F0DFF800B3FF23314C314D87F8383007F138092146CA
:2071C0004846FEF72DFDA0B190F8262090F827309A42F4D172B690F8262090F827309342B9
:2071E00000F0748262B621464846FEF719FD0028EAD1234801F0BAF8002863D0FF23214EB4
:2072000087F8373007F1370A4FF0000B31465046FEF706FD0446002854D0E37FD807F5D55F
:2072200072B6E37FD4F8088023F00103E37762B6A37F032BEAD8DFE813F02F020E02E101E8
:20724000290000BFAFF3008000000000389C9C41EC9400080000104000004E40001000E01D
:20726000700A002000007A44C0E1E44CE8010020F53A00085C000020D55100085C94000803
:2072800078070020713A00084C940008A7F838B0A06997F8375007F1380302220121FEF7A0
:2072A000BBFA3A8F009552BA204602F00603414692B2FEF785FA31465046FEF7B1FC044616
:2072C0000028AAD1B34801F051F890B3FF23B24DDFF8F08287F8373007F1370A0226294673
:2072E0005046FEF79DFC044618B3237E5907F6D5DA0740F1E68101F049F840F62D032676DC
:207300003B87206907F1380302220021FEF784FA72B6D8F80420E3681344A360204601F01F
:207320005DF862B629465046FEF77AFC04460028DBD19A4801F01AF818B3FF23984C994DB6
:2073400087F8383007F1380921464846FEF768FCB8B1437C1B07F7D572B6437C23F00803A4
:20736000437462B6C27C97F8381000F12003D2082846FFF7EDF921464846FEF751FC002892
:20738000E7D1894800F0F2FF30B3FF23874C884D87F8383007F1380921464846FEF740FC90
:2073A000D0B190F82030DE07F6D572B690F82010826821F00101D0E9063680F8201062B632
:2073C00097F8381000962846FFF7C2F921464846FEF726FC0028E4D1764800F0C7FF20B3F1
:2073E000FF23754C754D87F8383007F1380921464846FEF715FCC0B1037FFF2BF7D172B6C0
:20740000837C002B00F08381427F027762B6C27E97F83810133000902846FFF799F92146B5
:207420004846FEF7FDFB0028E6D1654A654B4AF6AA2111605A6872B663490B689B1A002B2E
:20744000B8BF0A6062B6614B1D78EDB2002D58D05F4B1C78E0071DD4042D52D95D4A92F85B
:2074600000A0AAF105033B2B0CD8567826F00F03102B07D1554544D3531E13F80A307E2B66
:2074800000F0A584BAF17E0F00F09084504B44F001041C704F482A467E2101F029FF002850
:2074A00000F081844B4A831A494A04F0FE04147003F1010AA30700F17284454B44F002043E
:2074C0001C704548FFF744F94FF0FF34002080463E4B1D78EDB2B5EB0A0640F05284EFF3B3
:2074E000108272B6394B1B78DBB29D4240F04584364B1E7082F31088012C02D13648FFF7C6
:2075000027F9304B354D364C5B68386A2A682168344E7B62181A02EB000E0131B0F5803F2A
:20752000C5F800E0216080F0F480D6F800C000FB00F3FF330CEB1323634538BF4FF0FF335E
:20754000DFF8B48028487A6AD8F8009033601044A0EB09000028FFF6A6AB72462348FFF76A
:20756000F7F87A6A914503D9214A1368013313607A6AC8F800201F4A002333602B60236008
:2075800092F90830002B7FF494AB7B6A3B62FFF7A1BB00BF58000020453A00088007002012
:2075A0005554000884940008E4010020A552000894940008E0010020193A00089C94000832
:2075C00000300040001000E07C070020D80500200C0B00201805002034A80008040B002024
:2075E000F4070020080B002000BA3CDCBC940008000B002000000020FC0A00204FF0010959
:2076000097F83730C7F83890A069BB62494607F138030322FEF700F90723BD6B3B87A069D5
:20762000494607F138030222FEF7F6F82DBA97F83930BA6A00924FEA152909F00109C5F3BA
:207640000F2523F003032A464146204643EA0903FEF7B6F8DAE50C23BB63A06997F8379039
:2076600007F1380304220121FEF7D6F8BD6B0F233B87A06907F13803022201212DBAFEF752
:20768000CBF897F83930CDF8009025F07F4241462046FEF795F8B9E5C7F838B0A06997F8B8
:2076A000375007F1380304220121FEF7B5F8BA6B009512BA4146204602F00703FEF780F84A
:2076C000A4E597F83710FEF763F908E6013380F826304269038B62B697F838102846FFF77E
:2076E00037F86CE50CF1FF30C0B200F1010EAE4406E001384FFA80F8B8F1000F7FF7CEACF2
:207700001EF8018DD045F4D05FFA80FCC6E462B66DE6B0F5801F07D2D6F800C000F1FF0364
:207720001B0A00FB03C307E74FF0FF3308E7C04ADFF808B3FF2307F138091372C7F8189032
:2077400062B6BA69BBF8EE620023C2E90033C2E90233002E00F0F781BBF81A30FBB1B54BCB
:20776000D3E90445DBE90223CBE904452046294600F080FE80463046894601F0CBFBAE4922
:2077800001F0D4FC00F0D6FF02460B464046494601F09AFA002840F01181CBE90245D7F87C
:2077A00018804046FCF710FE002800F00781DBF84040A04AFA61634203F01F0304F01F05A0
:2077C000D2E9040158BF5D4297A3D3E9002301F009F801F0C9FA0BEB8505BBF818606864FD
:2077E0000134CBF84040002E00F0A482934844460022B446D0F8C43054F8046B594201F049
:207800001F0103F01F0558BF4D4202EB421129440BEB8101013201336245C1F8C86000F186
:2078200084000364E6DBBBF81A30002B00F0F38100239A46BB62ABF8E23200215046FCF78F
:207840008BFADBF8FC523D620446002D00F0D881DBF8000300F04CFFEE00C6F58076264409
:207860008046894604F58074002574E9020142464B4601F03DFA002818BF0135A642F4D1DE
:207880003B6A9D4200F0BC81BBF8E232BBF81820ABF8E2320AF1010A9245CEDBBBF8F8326B
:2078A000BA6A934200F38A80BBF8E232002B00F08580F96900245CA3D3E90023D1E90401C8
:2078C000ABF8EE4200F08EFF01F04EFA5C4BCBF8D80201211868FCF7C1FCBBF8183043B19A
:2078E00020460121FCF738FABBF8183001349C42F6DB1024CBF8D442BBF8EC02514E01F0BE
:2079000009FB4D4901F012FCFB69D3E904890546D6E90023C6E902894046494600F0AAFD0E
:20792000C7E90A01284600F005FF02460B46D7E90A0101F0C9F9002840D1013CC4F10F02D7
:207940000BEBC203CBF8D4420BEBC200D3F858429BF80010DBF8D832C6E900890B94D0F857
:20796000D4010A900BEBC2042046D4F850410994D0F8CC0008900BEBC2042046A46C079483
:20798000D0F8540206900BEBC2042046D4F8D0410594D0F84C0104900BEBC2042046D4F804
:2079A000C8400394406C0290DBF8040301909BF8E202009052002448FEF7CAFE234BB3F8E4
:2079C00064A0BAF1000F00F0B6801A4AB3F86600144601F09FFA184901F0A8FBD4E904456F
:2079E0000646BE62174A174ED2E90023C6E902452046294600F03EFD8046B86A894600F0DA
:207A000099FE02460B464046494601F05DF90146002840F090800D4B0A4AD3F8EC60C2E9BD
:207A20000045002E59D013E0000000000088C340000000202800002000007A44F8010020ED
:207A400070070020900A00200C950008E00500208022B86907F1340401F0C2FC25463246A2
:207A600007F1B401504200F01F0002F01F0358BF4342B74800EB83030132D3F8F03045F83D
:207A8000043FA942EED100F1EC02234653F8040F42F8040F9942F9D1AD480023826EC0F8A1
:207AA000EC302546504200F01F0002F01F0358BF4342A74800EB83030132DB6E45F8043F92
:207AC000A942EFD100F1680354F8042F43F8042F8C42F9D19E4A002393660AF1FF339C4D00
:207AE0009BB2C3F1070205EB021108468C6FA5F8643029782B6E0794406F069005EB0214DF
:207B00002046246F0594C06E049005EB02142046D4F8FC400394D0F8F800029005EB0214AE
:207B20002046D4F8F4400194D0F8F000009092008848FEF70DFE884B93F90830002B7FF46B
:207B4000FFADFFF7BFB8BBF8E032002B50D0BBF81A301BB3814BBBF8DC021C4601F0DAF9AE
:207B60007F4901F0E3FAD4E90445DBE902230646CBE904452046294600F07CFC80463046BE
:207B8000894600F0D7FD02460B464046494601F09BF800287FF412AFCBE90245B869FCF7B5
:207BA00013FC00283FF40AAF6C4BFB61D3E9040165A3D3E9002300F015FE01F0D5F87B6C3F
:207BC000BC6BBBF8001002933B6C0193FB6B0093024623466348FEF7BBFDBBF8DE32BBF873
:207BE000E02201339BB29A42ABF8DE3200F0E480DBF8D442002C3FF4E1AE584BFB617BE6E8
:207C0000BBF8E222012303FA0AF31343BA6A0132BA629BB23AE6BB62ABF8E2323B6207E001
:207C20003A6ABBF8183001329A423A62BFF636AE0021386AFCF790F8DBF80043D0E93E898D
:207C40000646204600F054FD02460B464046494601F058F8B8B1600800F04AFD02460B46A1
:207C6000D6E93C0101F04EF868B13F4BA3FB0430400800F03DFD02460B46D6E93A0101F066
:207C800041F8002849D1DBF8C4301F2BC8DDD6E93C454046494622462B46C7E9024501F09D
:207CA00031F80028BCD0D6E93A2320462946C7E9002301F027F80028B2D00023A6F1080A9D
:207CC0007B61E036FAE902454046494622462B4601F018F880B1D7E9020122462B4601F0DB
:207CE00011F848B1D7E9000122462B4601F00AF810B17B6901337B615645E3D17B691D2BC5
:207D00008ED1DBF8FC0200F0F3FC02460B464046494600F0D9FF002882D13B6ABBF8E22207
:207D2000012101FA03F31343BA6AABF8E2320A44BA6275E7BBF81A30002B18BF3346ABF81E
:207D4000E2323BE6AFF30080000000000088C340E005002034950008000000202800002003
:207D600000007A4414950008ABAAAAAAB8F1000F7FF486A94046FFF7BDB982F31088FFF79C
:207D8000A7BB634B00EB0A011944321A184401F00DFB604B304683F80880FFF7A0BB4FF02B
:207DA000FF34FFF793BBAA46FFF784BB4FF0010A4FF0FF34FFF78ABBFB691B680022012BFB
:207DC000ABF8E0227FF414AFFBF780FF10E7AAF1030841461046FDF727FC4D498B1E11F87E
:207DE000082013F80A3043EA0223834288447FF449AB494A4949137824F00204B3420C7091
:207E00007FF45FAB013303F00F0343F010031370434B98456BD9424DC7F828A02C46E9467D
:207E200014F801BB0BF1FF334B2B6DD83D4B0BEB4B0103EB81014FEA4B0A4B78CA78D1F8FB
:207E400004E09B00073303F4FF63ADEB030D0CA8561EA2B3A04554D31EF8013B042B054613
:207E60001FD814F8013B03F06001602905F1040C03F07F0208D162F01F0205E014F8013BF3
:207E800003F07F0141EAC2121906F7D42A60B6B1A04536D31EF8013B042B06F1FF3665464F
:207EA000DFD9072B2DD1234613F8012B9C18A04527D3AC464CF8082B6B60002EEAD1154B2A
:207EC0005B7A25463BB1174A0AEB0B0302EB83039B78DA070ED5134A0AEB0B0302EB8303F5
:207EE0009B689847CD46444598D3D7F828A00124FFF7ECBA074B0C48997AFEF729FCCD465B
:207F0000F1E70620FEF726F80420FEF723F800BF1805002000000020540000200C0B002055
:207F20001A05002004A40008AC940008AD4BAE4DAE48AF4AAF4980B523F0030345F2555402
:207F40002B600460136884B003F001033BB11368013903F00103F9D1002B40F0DB81A64B82
:207F6000A34AA44901201860136803F002033BB11368013903F00203F9D1002B40F0CA8112
:207F80009E489A4A9E499F4B40F6C41505604AF6AA244CF6CC4014601060CA6842F080723C
:207FA000CA601A68002442F001021A605C60EFF3108172B6944A954B202082F82300072524
:207FC0004FF080601D605C609C60506081F31088032210460121FDF709F801220321022096
:207FE000FDF704F88A498B4B0A688B4D8B4842F400320A601A688A4922F400521A601A6840
:2080000022F480521A601A681A602A6822F440522A602A682A601A6822F4C0621A601A686C
:208020001A604FF4827202601A6822F004021A601A6842F004021A601A6822F008021A60CD
:208040001A6842F008021A601A6842F400521A6081F8264340224A601A68724842F02002E6
:208060001A60FEF775FB72B66F4801F0C1F910B962B6FEF711FE72B66C4B62495A7A4D689F
:2080800002B998726A4B6B49684A6B4C1C605F489C685D4E0B608C601160536000240221B5
:2080A0004FF080635172446084607360634B644E1C70FEF77DFDFF2331460DF107008DF802
:2080C0000730FDF7ADFDC8B142690477531E846102F26B22194603F1780701F8014F8F4269
:2080E000FBD1C3F879407C339A42F3D1447731460DF10700FDF794FD0028E5D1FF23514F95
:208100008DF8083006460FE094F82C10A06901F01001FCF7A3F894F82C30666213F0100340
:2081200018BF112384F82C30394602A8FDF778FD04460028E8D1FF23434E8DF8093004E04A
:20814000C46221463430FDF773FE31460DF10900FDF766FD0028F3D1FF233C4C8DF80A309F
:2081600001E0FDF7E9FD21460DF10A00FDF758FD0028F6D1FF2236498DF80B20044604E01F
:20818000037DC46123F0010303750DF10B00FDF747FD0028F4D1FF232E498DF80C300446D9
:2081A00000E0846703A8FDF73BFD0028F9D1FF23294E8DF80D3006E0FBF748FD94F82730D0
:2081C000002B40F0938031460DF10D00FDF728FD04460028F0D1FF23204E8DF80E300DF112
:2081E0000E0440E01F0B0020EC070020003000400C300040FEFF0F0004300040083000400C
:20820000F0ED00E0001000E000ED00E010E000E01C1002400C4400401044004008440040F6
:2082200000E100E0A4940008A00A0020000000200C0000204800002018000020690A0020F4
:20824000E96600088566000805660008BD65000871690008F53A0008D5510008A9540008EB
:20826000017CCB074ED431462046FDF7D9FC0028F6D1FF232646294F8DF80E30044605E000
:208280000279431D21460068FDF7C6FA39463046FDF7C6FC0028F3D1FF23214C8DF80F3096
:2082A00004E000F11101C068FDF7DAF921460DF10F00FDF7B5FC0028F3D1EFF30383C3F3C5
:2082C00008034BB14FF080736FF0060208B402A102B41FB5104700BF124B01225A7262B69B
:2082E00011489A7A2946FEF733FAC1E66269E16801330A4484F826306261A260204600F056
:208300006DF860E781F00801C068C1F3C001FBF7A5FFA8E72920FDF71DFE00BFAD3A00086F
:208320005554000800000020B4940008002070470849094B886830B400F53702074D084CF6
:20834000034402F5D85200202072AB60012030BC8A6070470C000020001BB7801800002094
:208360000000002008B50320FDF7F4FD03780246D8B210B10023137001207047024B00221D
:208380001A720123037070470000002030B4EFF3108472B60E490B68834202D111E0834249
:2083A0000CD01A461B68002BF9D14B68834204BF084B4B6084F3108830BC70470368136040
:2083C000F3E7054B026885689D601A600B60ECE7000000200C00002048000020F0B4816826
:2083E000EFF3108572B61B4C23689A688A1A002A0BDB1C461B689A688A1A002AF9DA03604B
:20840000206085F31088F0BC7047134E72688A1A002A1ADB0027114A114EDFF84CC09342D2
:2084200008BF1B680360106000234FF08060226091607360B360CCF8040085F31088002F7D
:20844000E1D0F0BC0748FEF783B97168F03181600127E0E700000020001000E048000020FD
:2084600010E000E03498000800ED00E081F0004102E000BF83F0004330B54FEA41044FEAE6
:20848000430594EA050F08BF90EA020F1FBF54EA000C55EA020C7FEA645C7FEA655C00F0F8
:2084A000E2804FEA5454D4EB5555B8BF6D420CDD2C4480EA020281EA030382EA000083EAD9
:2084C000010180EA020281EA0303362D88BF30BD11F0004F4FEA01314FF4801C4CEA113112
:2084E00002D0404261EB410113F0004F4FEA03334CEA133302D0524263EB430394EA050FD1
:2085000000F0A780A4F10104D5F1200E0DDB02FA0EFC22FA05F2801841F1000103FA0EF2ED
:20852000801843FA05F359410EE0A5F120050EF1200E012A03FA0EFC28BF4CF0020C43FA5E
:2085400005F3C01851EBE37101F0004507D54FF0000EDCF1000C7EEB00006EEB0101B1F519
:20856000801F1BD3B1F5001F0CD349085FEA30004FEA3C0C04F101044FEA445212F5800F20
:2085800080F09A80BCF1004F08BF5FEA500C50F1000041EB045141EA050130BD5FEA4C0C68
:2085A000404141EB0101013C28BFB1F5801FE9D291F0000F04BF01460020B1FA81F308BF48
:2085C0002033A3F10B03B3F120020CDA0C3208DD02F1140CC2F10C0201FA0CF021FA02F1FE
:2085E0000CE002F11402D8BFC2F1200C01FA02F120FA0CFCDCBF41EA0C019040E41AA2BFFE
:2086000001EB0451294330BD6FEA04041F3C1CDA0C340EDC04F11404C4F1200220FA04F0F2
:2086200001FA02F340EA030021FA04F345EA030130BDC4F10C04C4F1200220FA02F001FA48
:2086400004F340EA0300294630BD21FA04F0294630BD94F0000F83F4801306BF81F48011C7
:208660000134013D4EE77FEA645C18BF7FEA655C29D094EA050F08BF90EA020F05D054EA38
:20868000000C04BF1946104630BD91EA030F1EBF0021002030BD5FEA545C05D14000494138
:2086A00028BF41F0004130BD14F580043CBF01F5801130BD01F0004545F0FE4141F4700128
:2086C0004FF0000030BD7FEA645C1ABF194610467FEA655C1CBF0B46024650EA013406BFE5
:2086E00052EA033591EA030F41F4002130BD00BF90F0000F04BF0021704730B54FF4806441
:2087000004F132044FF000054FF0000150E700BF90F0000F04BF0021704730B54FF480647E
:2087200004F1320410F0004548BF40424FF000013EE700BF42004FEAE2014FEA31014FEA1A
:2087400002701FBF12F07F4393F07F4F81F06051704732F07F4208BF704793F07F4F04BF66
:2087600041F40021704730B54FF4607401F0004521F000411CE700BF50EA010208BF7047EB
:2087800030B54FF000050AE050EA010208BF704730B511F0004502D5404261EB41014FF4B6
:2087A000806404F132045FEA915C3FF4D8AE4FF003025FEADC0C18BF03325FEADC0C18BF32
:2087C000033202EBDC02C2F1200300FA03FC20FA02F001FA03FE40EA0E0021FA02F1144424
:2087E000BDE600BF70B54FF0FF0C4CF4E06C1CEA11541DBF1CEA135594EA0C0F95EA0C0F34
:2088000000F0DEF82C4481EA030621EA4C5123EA4C5350EA013518BF52EA033541F48011D9
:2088200043F4801338D0A0FB02CE4FF00005E1FB02E506F00042E0FB03E54FF00006E1FBD8
:2088400003569CF0000F18BF4EF0010EA4F1FF04B6F5007F64F5407404D25FEA4E0E6D4108
:2088600046EB060642EAC62141EA55514FEAC52040EA5E504FEACE2EB4F1FD0C88BFBCF506
:20888000E06F1ED8BEF1004F08BF5FEA500E50F1000041EB045170BD06F0004646EA0101CA
:2088A00040EA020081EA0301B4EB5C04C2BFD4EB0C0541EA045170BD41F480114FF0000E0D
:2088C000013C00F3AB8014F1360FDEBF002001F0004170BDC4F10004203C35DA0C341BDC7C
:2088E00004F11404C4F1200500FA05F320FA04F001FA05F240EA020001F0004221F00041EE
:2089000010EBD37021FA04F642EB06015EEA430E08BF20EAD37070BDC4F10C04C4F1200557
:2089200000FA04F320FA05F001FA04F240EA020001F0004110EBD37041F100015EEA430EDE
:2089400008BF20EAD37070BDC4F1200500FA05F24EEA020E20FA04F301FA05F243EA02038E
:2089600021FA04F001F0004121FA04F220EA020000EBD3705EEA430E08BF20EAD37070BD91
:2089800094F0000F0FD101F00046400041EB010111F4801F08BF013CF7D041EA060195F099
:2089A000000F18BF704703F00046520043EB030313F4801F08BF013DF7D043EA06037047FC
:2089C00094EA0C0F0CEA135518BF95EA0C0F0CD050EA410618BF52EA4306D1D181EA030165
:2089E00001F000414FF0000070BD50EA410606BF1046194652EA430619D094EA0C0F02D104
:208A000050EA013613D195EA0C0F05D152EA03361CBF104619460AD181EA030101F0004110
:208A200041F0FE4141F470014FF0000070BD41F0FE4141F4780170BD70B54FF0FF0C4CF4BA
:208A4000E06C1CEA11541DBF1CEA135594EA0C0F95EA0C0F00F0A7F8A4EB050481EA030E3F
:208A600052EA03354FEA013100F088804FEA03334FF0805545EA131343EA12634FEA022248
:208A800045EA111545EA10654FEA00260EF000419D4208BF964244F1FD0404F5407402D20A
:208AA0005B084FEA3202B61A65EB03055B084FEA32024FF480104FF4002CB6EB020E75EB9B
:208AC000030E22BFB61A754640EA0C005B084FEA3202B6EB020E75EB030E22BFB61A754685
:208AE00040EA5C005B084FEA3202B6EB020E75EB030E22BFB61A754640EA9C005B084FEA30
:208B00003202B6EB020E75EB030E22BFB61A754640EADC0055EA060E18D04FEA051545EAD0
:208B200016754FEA06164FEAC30343EA52734FEAC2025FEA1C1CC0D111F4801F0BD141EAAA
:208B400000014FF000004FF0004CB6E711F4801F04BF01430020B4F1FD0C88BFBCF5E06FED
:208B60003FF6AFAEB5EB030C04BFB6EB020C5FEA500C50F1000041EB045170BD0EF0004E62
:208B80004EEA113114EB5C04C2BFD4EB0C0541EA045170BD41F480114FF0000E013C90E638
:208BA00045EA060E8DE60CEA135594EA0C0F08BF95EA0C0F3FF43BAF94EA0C0F0AD150EADC
:208BC00001347FF434AF95EA0C0F7FF425AF104619462CE795EA0C0F06D152EA03353FF449
:208BE000FDAE1046194622E750EA410618BF52EA43067FF4C5AE50EA41047FF40DAF52EA5F
:208C000043057FF4EBAE12E74FF0FF3C06E000BF4FF0010C02E000BF4FF0010C4DF804CD99
:208C20004FEA410C7FEA6C5C4FEA430C18BF7FEA6C5C1BD001B050EA410C0CBF52EA430C74
:208C400091EA030F02BF90EA020F0020704710F1000F91EA030F58BF994208BF90422CBF51
:208C6000D8176FEAE37040F0010070474FEA410C7FEA6C5C02D150EA013C07D14FEA430C10
:208C80007FEA6C5CD6D152EA033CD3D05DF8040B704700BF8446104662468C461946634662
:208CA00000E000BF01B5FFF7B7FF002848BF10F1000F01BD4DF808EDFFF7F4FF0CBF0120A7
:208CC00000205DF808FB00BF4DF808EDFFF7EAFF34BF012000205DF808FB00BF4DF808EDBF
:208CE000FFF7E0FF94BF012000205DF808FB00BF4DF808EDFFF7CEFF94BF012000205DF80E
:208D000008FB00BF4DF808EDFFF7C4FF34BF012000205DF808FB00BF4FEA410212F50012BE
:208D200015D211D56FF47873B3EB625212D94FEAC12343F0004343EA505311F0004F23FA0B
:208D400002F018BF404270474FF00000704750EA013005D111F0004008BF6FF0004070477C
:208D60004FF00000704700BF4A0011D212F5001211D20DD56FF47873B3EB62520ED44FEA78
:208D8000C12343F0004343EA505323FA02F070474FF00000704750EA013002D14FF0FF3041
:208DA00070474FF00000704780F0004002E000BF81F0004142001FBF5FEA410392EA030FC8
:208DC0007FEA226C7FEA236C6AD04FEA1262D2EB1363C1BFD218414048404140B8BF5B4282
:208DE000192B88BF704710F0004F40F4000020F07F4018BF404211F0004F41F4000121F0EF
:208E00007F4118BF494292EA030F3FD0A2F1010241FA03FC10EB0C00C3F1200301FA03F1F6
:208E200000F0004302D5494260EB4000B0F5000F13D3B0F1807F06D340084FEA310102F159
:208E40000102FE2A51D2B1F1004F40EBC25008BF20F0010040EA03007047490040EB000066
:208E6000013A28BFB0F5000FEDD2B0FA80FCACF1080CB2EB0C0200FA0CF0AABF00EBC2507F
:208E800052421843BCBFD0401843704792F0000F81F4000106BF80F400000132013BB5E7FB
:208EA0004FEA41037FEA226C18BF7FEA236C21D092EA030F04D092F0000F08BF08467047BF
:208EC00090EA010F1CBF0020704712F07F4F04D1400028BF40F00040704712F100723CBFF3
:208EE00000F50000704700F0004343F0FE4040F4000070477FEA226216BF08467FEA236338
:208F00000146420206BF5FEA412390EA010F40F4800070474FF0000304E000BF10F0004337
:208F200048BF40425FEA000C08BF704743F0964301464FF000001CE050EA010208BF70478C
:208F40004FF000030AE000BF50EA010208BF704711F0004302D5404261EB41015FEA010CEA
:208F600002BF84460146002043F0B64308BFA3F18053A3F50003BCFA8CF2083AA3EBC253F1
:208F800010DB01FA02FC634400FA02FCC2F12002BCF1004F20FA02F243EB020008BF20F068
:208FA0000100704702F1200201FA02FCC2F1200250EA4C0021FA02F243EB020008BF20EA80
:208FC000DC7070474FF0FF0C1CEAD0521EBF1CEAD15392EA0C0F93EA0C0F6FD01A4480EADF
:208FE000010C400218BF5FEA41211ED04FF0006343EA501043EA5111A0FB01310CF00040EB
:20900000B1F5000F3EBF490041EAD3715B0040EA010062F17F02FD2A1DD8B3F1004F40EB52
:20902000C25008BF20F00100704790F0000F0CF0004C08BF49024CEA502040EA51207F3AAC
:20904000C2BFD2F1FF0340EAC250704740F400004FF00003013A5DDC12F1190FDCBF00F037
:2090600000407047C2F10002410021FA02F1C2F1200200FA02FC5FEA310040F1000053EA40
:209080004C0308BF20EADC70704792F0000F00F0004C02BF400010F4000F013AF9D040EA9E
:2090A0000C0093F0000F01F0004C02BF490011F4000F013BF9D041EA0C018FE70CEAD153EA
:2090C00092EA0C0F18BF93EA0C0F0AD030F0004C18BF31F0004CD8D180EA010000F00040BC
:2090E000704790F0000F17BF90F0004F084691F0000F91F0004F14D092EA0C0F01D1420246
:209100000FD193EA0C0F03D14B0218BF084608D180EA010000F0004040F0FE4040F400007B
:20912000704740F0FE4040F4400070474FF0FF0C1CEAD0521EBF1CEAD15392EA0C0F93EA52
:209140000C0F69D0A2EB030280EA010C49024FEA402037D04FF0805343EA111143EA101316
:209160000CF000408B4238BF5B0042F17D024FF4000C8B4224BF5B1A40EA0C00B3EB510F3A
:2091800024BFA3EB510340EA5C00B3EB910F24BFA3EB910340EA9C00B3EBD10F24BFA3EB8C
:2091A000D10340EADC001B0118BF5FEA1C1CE0D1FD2A3FF650AF8B4240EBC25008BF20F074
:2091C000010070470CF0004C4CEA50207F32C2BFD2F1FF0340EAC250704740F400004FF08C
:2091E0000003013A37E792F0000F00F0004C02BF400010F4000F013AF9D040EA0C0093F075
:20920000000F01F0004C02BF490011F4000F013BF9D041EA0C0195E70CEAD15392EA0C0F7A
:2092200008D142027FF47DAF93EA0C0F7FF470AF084676E793EA0C0F04D14B023FF44CAFB5
:2092400008466EE730F0004C18BF31F0004CCAD130F000427FF45CAF31F000437FF43CAF7E
:209260005FE700BF42000ED2B2F1FE4F0BD34FF09E03B3EB126209D44FEA002343F0004358
:2092800023FA02F070474FF00000704712F1610F01D1420202D14FF0FF3070474FF0000052
:2092A000704700BFD0B5FFF745FA0C4B002206460F46FFF797FAFFF757FD0446FFF718FA41
:2092C000074B0022FFF78EFA02460B4630463946FFF7D0F8FFF748FD2146D0BD0000F03DF4
:2092E0000000F04100000000000000000000000001F0FF01102A2BDB10F0070F08D010F816
:20930000013B013A8B422DD010F0070F42B3F6D1F0B441EA012141EA014122F007047FF050
:2093200000070023F0E80256083C85EA010586EA010685FA47F5A3FA87F586FA47F6A5FA73
:2093400087F68EB9EED1F0BC01F0FF0102F0070232B110F8013B013A83EA010313B1F8D192
:209360000020704701387047002D06BF35460338073815F0010F07D1013015F4807F02BF58
:20938000013015F4C03F0130F0BC0138704700BF0A44914200F1FF3300D1704710B511F86E
:2093A000014B03F8014F9142F9D110BD884210B501EB020402D98442234607D8431EA142FE
:2093C00008D011F8012B03F8012FF8E7024401468A4200D110BD13F8014D02F8014DF7E700
:2093E00002440346934200D1704703F8011BF9E7EC46A0E8F05F4FF000007047B0E8F05FA4
:20940000E546080008BF0120704700BFF200000000000000000000000001020304050607AD
:209420001011202122232425FE00000000400200A0950008642B080090950008651C050075
:209440009895000866280900A495000867120300B095000868260700B495000869100300D4
:20946000BC9500086A400200C09500086B140400C49500086C1C0700C89500086D40030002
:20948000D09500086E400200C09500086F0A02008C95000870170400D495000871400300FE
:2094A000D89500084D060000000000004E0901004C9500084F0E02005095000851150300EE
:2094C000DC95000852100200E0950008530B0100E495000854120400E895000856400100CC
:2094E000EC950008570B0100E495000858210600F0950008590D0200F89500085A11040087
:20950000549500085B110400589500085C400F005C9500085D2106006C9500085E400F0017
:209520005C9500085F1C050074950008600801007C95000861370B008095000862370B00BB
:2095400080950008630A02008C95000802000000000200000404000404040400040400042E
:209560000000010101010001010101000400010101010000040101010100000004000000CF
:209580000404000000000000000000000404000004000000000000000400000000000000B3
:2095A000000600000404040200010101010000000400000004000000000000000400020085
:2095C000040700000400000404000002040402000402070004000000040407000000000048
:2095E000000000000000000004000402070000000400000000000000040100000206000049
:2096000003060000040600000506000006060000070600000806000000080140000C01406F
:20962000001001400014014000180140001C0140002001402700280029002A002B002C0074
:209640002D002E002F00310032003300340035003700380039003B003C003E003F004000A5
:20966000420044004500470048004A004C004E004F00510053005500570059005B005D00FC
:209680005F0062006400660068006B006D0070007200750077007A007D007F0082008500B4
:2096A00088008B008E009100940097009A009E00A100A400A800AB00AF00B300B600BA00AB
:2096C000BE00C200C600CA00CE00D200D600DA00DF00E300E700EC00F000F500FA00FE00B8
:2096E000030108010D01120117011C01210126012B01310136013B01410146014C015101C5
:2097000057015C01620168016E01730179017F0185018B01910197019D01A301A901AF0113
:20972000B601BC01C201C801CE01D501DB01E101E701EE01F401FA01000206020D021302D1
:2097400019021F0226022C02320238023E0244024A02500256025C02620268026E0274027B
:209760007A02800285028B02910296029C02A102A702AC02B202B702BC02C202C702CC028E
:20978000D102D602DB02E002E502E902EE02F302F702FC020003050309030D03120316035C
:2097A0001A031E03220326032A032E033103350339033C034003430347034A034D03510314
:2097C000540357035A035D0360036303660369036B036E0371037303760378037B037D03C2
:2097E000800382038403860389038B038D038F03910393039503970398039A039C039E0341
:209800009F03A103A303A403A603A703A903AA03AC03AD03AF03B003B103B303B403B5036C
:20982000B603B703B803BA03BB03BC03BD03BE03BF03C003500600000000000055100200FD
:20984000E095000878DAC5597D6FDB361AFF2A8481E1B643DCB324BF06D81F5E9AED8A5BC3
:20986000BA2C4E6FC31585204BB4ADAB2CB9A2E4241DFADDEFF7F02129CA71BB6187C30D20
:20988000E842520FF9BCBFFAB7C1BACD8B2C3ECA5AE555A90697836D9A5E8AAF7F78FD46DC
:2098A000DC5755A1C4A6AAC5B2DE8BEBFD5A6699CCC46D5DA552A9AA5662310C47C162F84F
:2098C000613CDC27FFAEEA6FC4E245F8221074188CC289F8BA96854C94FC46BC5DDEDDFCAB
:2098E0002DA9F7C3C5705D2765BA13B53CE6845384B3D964B17827D679D93679A1FE3CF6D3
:20990000F04514BD085E58F4838B415AEDF7499981AFDF064996C5595E7F4C9B425479F645
